:1000CE002030080000000000000000FF080808FFB4
:1000DE00000E15151508007E0102007E0102000EAD
:1000EE0011110E007D000000000000000000000055
:0300FE00000000FF
:10008F00753903E4F53A120167E4F538E538253997
:10009F002408F8E6FD7C00AF3812012F0538E5384B
:1000AF00C3940840E7053AE53AD3940A40DBE4F5F8
:0F00BF003A0539E539D3942840CFE4F53980CAA2
:10015100EF1FAC0670011E4C600B007D027CC7DCFA
:05016100FEDDFC80EB57
:010166002276
:02010200AD0747
:10010400E4FB74807E00A803088006CEA2E713CE29
:1001140013D8F8FFEDF582EF558224FF92B4D2B6DE
:0A012400C2B60BBB08DCD2B5C2B5B1
:01012E0022AE
:05016700C2B6C2B52282
:10012F00AA07AF05120102AF027480A80708800268
:10013F00C313D8FCF4F5807F017E00120151758046
:02014F00FF228D
:03000000020003F8
:0C000300787FE4F6D8FD75813A02004ACF
:10000F0002008FE493A3F8E493A34003F68001F278
:10001F0008DFF48029E493A3F85407240CC8C333F2
:10002F00C4540F4420C8834004F456800146F6DFC1
:10003F00E4800B01020408102040809000CEE47E83
:10004F00019360BCA3FF543F30E509541FFEE493B6
:10005F00A360010ECF54C025E060A840B8E493A37D
:10006F00FAE493A3F8E493A3C8C582C8CAC583CAA8
:10007F00F0A3C8C582C8CAC583CADFE9DEE780BE60
:0101010000FD
:00000001FF
