:1009230020200020202D20202D0020203A20203AB6
:0109330000C3
:10059100120478E511FB3395E0FA750C027D017FB9
:1005A100011208AFE512FB3395E0FA750C027D04E8
:1005B1007F011208AFE513FB3395E0FA750C027D5C
:1005C100077F011208AFE514FB3395E0FA750C02C1
:1005D1007D017F021208AFE515FB3395E0FA750C3A
:1005E100027D047F021208AFE516FB3395E0FA7530
:0905F1000C027D077F020208AF35
:10000E00E523B4020B0521E52175F0068485F02168
:10001E00E523640360030200E874112521F806D37A
:10002E00E511648094E34003E4F511D3E512648096
:10003E00948C4003751201E51264016023E512648D
:10004E0003601DE51264056017E51264076011E593
:10005E00126408600BE512640A6005E512B40C0B1D
:10006E00D3E5136480949F404D8048E5126404608C
:10007E0011E5126406600BE51264096005E512B421
:10008E000B0BD3E5136480949E402B8026E512B4AF
:10009E000224E51175F0041203C2AFF0EF700BD31A
:1000AE00E5136480949D400E8009D3E5136480941B
:1000BE009C4003751301D3E514648094974003E4C8
:1000CE00F514D3E515648094BB4003E4F515D3E530
:1000DE0016648094BB4003E4F516E52364046003C4
:1000EE000201DE74112521F816C3E5116480948097
:1000FE005003751163C3E512648094815003751229
:10010E000CE51264016023E5126403601DE51264C0
:10011E00056017E51264076011E5126408600BE5CF
:10012E0012640A6005E512B40C0EC3E513648094E4
:10013E0081507975131F8074E51264046011E51205
:10014E006406600BE51264096005E512B40B1AC370
:10015E00E51364809481500375131ED3E5136480F8
:10016E00949E404875131E8043E5126402703DE56F
:10017E001175F0041203C2AFF0EF7019C3E51364EA
:10018E00809481502775131DE5136480949D401C47
:10019E0075131D8017C3E51364809481500E75137B
:1001AE001CE5136480949C400375131CC3E5146412
:1001BE008094805003751417C3E5156480948050A5
:1001CE000375153BC3E51664809480500375163B8A
:1001DE00E5217014E524B4010F7BFF7A0979237DA4
:1001EE00017F0112086E8011E511FB3395E0FA755F
:1001FE000C027D017F011208AFE521B40114E52444
:10020E00B4010F7BFF7A0979237D047F0112086EFA
:10021E008011E512FB3395E0FA750C027D047F0127
:10022E001208AFE521B40214E524B4010F7BFF7A66
:10023E000979237D077F0112086E8011E513FB33C8
:10024E0095E0FA750C027D077F011208AFE521B427
:10025E000314E524B4010F7BFF7A0979237D017F16
:10026E000212086E8011E514FB3395E0FA750C024C
:10027E007D017F021208AFE521B40414E524B40118
:10028E000F7BFF7A0979237D047F0212086E80119D
:10029E00E515FB3395E0FA750C027D047F0212081A
:1002AE00AFE521B40512E524B4010D7BFF7A09797F
:1002BE00237D077F0202086EE516FB3395E0FA7583
:0A02CE000C027D077F021208AF2228
:1006B80012090F1200031208CC7BFF7A0979267DF4
:1006C800017F0112086E7BFF7A09792D7D017F0277
:1006D80012086E1202D81205FA8F23E523B4010F0F
:1006E800E52270057522018006E4F5221202D8E59C
:1006F800221460080470DF12059180DA12000E805F
:01070800D51B
:03000B0002079158
:09079100C0E0C0D075D000C00723
:10079A00758A66758CFC0520E5207002051FC394D6
:1007AA00F4E51F94014012751F00752000E52470BE
:0907BA00047F0180027F008F24FE
:0707C300D007D0D0D0E032D6
:1008E300EF1FAC0670011E4C600B007D027CC7DC61
:0508F300FEDDFC80EBBE
:0108F80022DD
:090943000711130B100C3B3706E1
:05000300C2B5C2B622E7
:06065B0025F0FDEC3EFC61
:060661008C088D09AB07B7
:10066700D2B5E4FD74017E00A805088005C333CE2A
:1006770033CED8F9FFEBF582EF558224FF92B4D23F
:10068700B6C2B60DBD08DDE4FD74017E00A80508FD
:100697008005C333CE33CED8F9FFE5085EFEE50902
:1006A7005F4E24FF92B4D2B6C2B60DBD08DBC2B509
:0106B7002220
:02070900AD073A
:10070B00E4F9430501D2B5FB74017E00A803088010
:10071B0005C333CE33CED8F9FFEDF582EF558224E6
:10072B00FF92B4C2B6D2B60BBB08DDE4FBD2B6C2A5
:10073B00B630B40D7401A803088002C333D8FC4251
:0B074B00010BBB08E8C2B5C2B4AF014F
:010756002280
:1002D800E4FDFC7F8E120661E51175F00A8475F065
:1002E80010A4FFAEF0E51175F00A84EF7F8C1206BA
:1002F8005BE51275F00A8475F010A4FFAEF0E51204
:1003080075F00A847C00EF7F8812065BE51375F0B0
:100318000A8475F010A4FFAEF0E51375F00A847C2A
:1003280000EF25F0FDEC3EFC7F86120661E51475B2
:10033800F00A8475F010A4FFAEF0E51475F00A8495
:100348007C00EF25F0FDEC3EFC7F84120661E5158C
:1003580075F00A8475F010A4FFAEF0E51575F00A83
:10036800847C00EF25F0FDEC3EFC7F82120661E5FF
:100378001675F00A8475F010A4FFAEF0E51675F056
:100388000A847C00EF25F0FDEC3EFC7F80120661BC
:10039800E51775F00A8475F010A4FFAEF0E517753F
:1003A800F00A847C00EF25F0FDEC3EFC7F8A120603
:0A03B800617D807C007F8E020661EB
:100478007F8C120709EFC4540F75F00AA4FEEF54DD
:100488000F2EF5117F88120709EFC4540F75F00A73
:10049800A4FEEF540F2EF5127F86120709EFC454FD
:1004A8000F75F00AA4FEEF540F2EF5137F84120780
:1004B80009EFC4540F75F00AA4FEEF540F2EF5147B
:1004C8007F82120709EFC4540F75F00AA4FEEF5497
:1004D8000F2EF5157F80120709EFC4540F75F00A27
:1004E800A4FEEF540F2EF5167F8A120709EFC454A5
:0C04F8000F75F00AA4FEEF540F2EF5174C
:0105040022D4
:06093400C2A58F80D2A7CE
:08093A007F027EEFDEFEDFFC10
:010942002292
:0A094D00C2A6120934C2A702093A3B
:10089100CFCDCFCECCCE1204237C007D0A1204230F
:0408A100ED2430FF13
:0A08A500D2A6120934C2A702093AD4
:1008F900AE07BE0104ED148006BE0209ED243F4493
:0609090080FF12094D22DF
:10090F007F3812094D7F0C12094D7F0612094D7F5A
:04091F000102094D7B
:0A095700AC031208F9AF040208A572
:06086E008B088A09890ACB
:100874001208F9E4FDAB08AA09A90A8D8275830060
:0C0884001203E4FF60061208A50D80E9D5
:010890002245
:0C083B007F0AEA24FFFDE434FFFC7E008D
:080847008E0D8F0E8C0F8D1039
:10084F007F017E00E4FBEBC39510E50F6480F87425
:0E085F008098500AAC0DAD0E1204110B80E80B
:01086D002268
:0408AF008A0A8B0B1B
:1008B3001208F9AA0CEAD39400400D12083BAC0AC3
:0808C300AD0B1208911A80ED43
:0108CB00220A
:100757001208F9C3EA64809480400B7F2B1208A526
:100767008A1D8B1E800E7F2D1208A5C3E49BF51EE4
:10077700E49AF51DAA1CEAD39400400D12083BAC7D
:090787001DAD1E1208911A80ED4F
:010790002246
:0407CA008A278B28C7
:1007CE001208F9AA29EAD3940040297F1012083D95
:1007DE00AC27AD28CFCDCFCECCCE120423EF540F05
:1007EE00FEC3940AEE5004243080022437FF120810
:0407FE00A51A80D1E7
:0108020022D3
:040803008A2C8B2D83
:100807001208F9AA2EEAD394004028EA24FFFDE44F
:1008170034FFFC7F027E00120847AC2CAD2DCFCDF4
:10082700CFCECCCE120423EF54012430FF1208A5FB
:030837001A80D252
:01083A00229B
:1008CC005389F0438901758A66758CFCC28DD28C74
:0708DC00D2A9D2AFC2B9227C
:1005FA00E4F50820B1137F14FE1208E330B1FD7F41
:10060A00147E001208E375080120B0147F147E00DE
:10061A001208E330B0FD7F147E001208E375080269
:10062A0020B2147F147E001208E330B2FD7F147EDC
:10063A00001208E375080320B3147F147E00120821
:10064A00E330B3FD7F147E001208E3750804AF0897
:01065A00227D
:03000000020505F1
:0C050500787FE4F6D8FD75812E02054CCD
:1003C200C2D530F707B2D563F0FF05F030E70CB2C3
:1003D200D5F4048463F0FF05F080018430D502F483
:0203E2000422F3
:1003E400BB010CE58229F582E5833AF583E02250CE
:1003F40006E92582F8E622BBFE06E92582F8E22218
:0D040400E58229F582E5833AF583E4932231
:10041100EF8DF0A4A8F0CF8CF0A428CE8DF0A42EFF
:02042100FE22B9
:10042300BC000BBE0029EF8DF084FFADF022E4CCBD
:10043300F875F008EF2FFFEE33FEEC33FCEE9DEC86
:10044300984005FCEE9DFE0FD5F0E9E4CEFD22EDCC
:10045300F8F5F0EE8420D21CFEADF075F008EF2F16
:10046300FFED33FD4007985006D5F0F222C398FD07
:050473000FD5F0EA22A4
:100511000206B8E493A3F8E493A34003F68001F242
:1005210008DFF48029E493A3F85407240CC8C333EB
:10053100C4540F4420C8834004F456800146F6DFBA
:10054100E4800B0102040810204080900943E47EFE
:10055100019360BCA3FF543F30E509541FFEE493AF
:10056100A360010ECF54C025E060A840B8E493A376
:10057100FAE493A3F8E493A3C8C582C8CAC583CAA1
:10058100F0A3C8C582C8CAC583CADFE9DEE780BE59
:01094C0000AA
:00000001FF
