:0E02DC00436C6F636B3A0020203A20203A00FA
:1000A2001202B91202767BFF7A0279DC7D017F01AE
:1000B2001202187BFF7A0279E37D017F0212021895
:1000C200E51BFB7A00750C027D017F02120259E5E5
:1000D2001CFB7A00750C027D047F02120259E51A9C
:0F00E200FB7A00750C027D077F0212025980D154
:03000B000200F1FF
:0400F100C0E0C0D0DB
:1000F500758A66758CFC0519E51970020518C39497
:10010500E8E51894034029751800751900051AE5E6
:100115001A943C4005751A00051CE51CC3943C4027
:1001250005751C00051BE51BC394184003751B00D2
:05013500D0D0D0E03243
:10028D00EF1FAC0670011E4C600B007D027CC7DCBD
:05029D00FEDDFC80EB1A
:0102A2002239
:0602CD00C2A58F80D2A73C
:0802D3007F027EEFDEFEDFFC7E
:0102DB002200
:0A02F600C2A61202CDC2A70202D375
:10023B00CFCDCFCECCCE12004D7C007D0A12004D1F
:04024B00ED2430FF6F
:0A024F00D2A61202CDC2A70202D30C
:1002A300AE07BE0104ED148006BE0209ED243F44EF
:0602B30080FF1202F6229A
:1002B9007F381202F67F0C1202F67F061202F67FD1
:0402C900010202F636
:0A030000AC031202A3AF0402024F87
:060218008B088A09890A27
:10021E001202A3E4FDAB08AA09A90A8D8275830018
:0C022E0012000EFF600612024F0D80E966
:01023A0022A1
:0C01E5007F0AEA24FFFDE434FFFC7E00EA
:0801F1008E0D8F0E8C0F8D1096
:1001F9007F017E00E4FBEBC39510E50F6480F87482
:0E0209008098500AAC0DAD0E12003B0B80E841
:0102170022C4
:040259008A0A8B0B77
:10025D001202A3AA0CEAD39400400D1201E5AC0AD8
:08026D00AD0B12023B1A80EDFB
:010275002266
:10013A001202A3C3EA64809480400B7F2B12024F01
:10014A008A168B17800E7F2D12024FC3E49BF51778
:10015A00E49AF516AA15EAD39400400D1201E5AC0B
:09016A0016AD1712023B1A80EDDC
:010173002269
:040174008A1F8B2033
:100178001202A3AA21EAD3940040297F101201E7B2
:10018800AC1FAD20CFCDCFCECCCE12004DEF540F4B
:10019800FEC3940AEE5004243080022437FF120272
:0401A8004F1A80D199
:0101AC002230
:0401AD008A248B25F0
:1001B1001202A3AA26EAD394004028EA24FFFDE410
:1001C10034FFFC7F027E001201F1AC24AD25CFCDBE
:1001D100CFCECCCE12004DEF54012430FF12024F8E
:0301E1001A80D2AF
:0101E40022F8
:100276005389F0438901758A66758CFCC28DD28CD0
:07028600D2A9D2AFC2B922D8
:030000000202EA0F
:0C02EA00787FE4F6D8FD7581260200A2A2
:10000E00BB010CE58229F582E5833AF583E02250A7
:10001E0006E92582F8E622BBFE06E92582F8E222F1
:0D002E00E58229F582E5833AF583E493220B
:10003B00EF8DF0A4A8F0CF8CF0A428CE8DF0A42ED9
:02004B00FE2293
:10004D00BC000BBE0029EF8DF084FFADF022E4CC97
:10005D00F875F008EF2FFFEE33FEEC33FCEE9DEC60
:10006D00984005FCEE9DFE0FD5F0E9E4CEFD22EDA6
:10007D00F8F5F0EE8420D21CFEADF075F008EF2FF0
:10008D00FFED33FD4007985006D5F0F222C398FDE1
:05009D000FD5F0EA227E
:00000001FF
