:10016B001201D512010A8F13E513640170230515D3
:10017B00531503E5157002F512E515B4010375125D
:10018B0032E515B4020375124BE515B40303751272
:0F019B0064E515FD7C007F017E0012009A80C490
:03000B000201AA45
:1001AA00C0E0C0F0C0D0758AA4758CFF0514E514B0
:1001BA0075F0648485F014E514C395125004D29046
:0B01CA008002C290D0D0D0F0D0E03214
:1001EC00EF1FAC0670011E4C600B007D027CC7DC5F
:0501FC00FEDDFC80EBBC
:0102010022DA
:1001D5005389F0438901758AA4758CFFC28DD28C31
:0701E500D2A9D2AFC2B9227A
:0C0202000A083F065B4F666D7D077F6FAA
:10009A00EE705BEF14B4080050549000B275F00390
:1000AA00A4C58325F0C583730200CA0200CE0200EC
:1000BA00D20200D60200DA0200E20200EA0200F2EC
:1000CA00D2A4800ED2A48012D2A48016D2A4801AFE
:1000DA00C2A4D2A3D2A28016C2A4D2A3C2A2800E64
:1000EA00C2A4C2A3D2A28006C2A4C2A3C2A2740896
:1000FA002DF8E6F5807F017E001201ECE4F58022FE
:10010A00E4F51620B1137F14FE1201EC30B1FD7F25
:10011A00147E001201EC75160120B0147F147E00C3
:10012A001201EC30B0FD7F147E001201EC7516024C
:10013A0020B2147F147E001201EC30B2FD7F147ECF
:10014A00001201EC75160320B3147F147E0012010D
:10015A00EC30B3FD7F147E001201EC751604AF1665
:01016A002272
:0300000002000EED
:0C000E00787FE4F6D8FD758116020055DD
:10001A0002016BE493A3F8E493A34003F68001F290
:10002A0008DFF48029E493A3F85407240CC8C333E7
:10003A00C4540F4420C8834004F456800146F6DFB6
:10004A00E4800B0102040810204080900202E47E42
:10005A00019360BCA3FF543F30E509541FFEE493AB
:10006A00A360010ECF54C025E060A840B8E493A372
:10007A00FAE493A3F8E493A3C8C582C8CAC583CA9D
:10008A00F0A3C8C582C8CAC583CADFE9DEE780BE55
:01020E0000EF
:00000001FF
