:100355005772697465204F6B0020202020202020D3
:10036500200052656164204F6B0020202020202052
:02037500200066
:100003001203FC750C05AB23AA227D017F011203A9
:10001300B31201768F24E524B401150523E523707B
:10002300020522750C05FBAA227D017F011203B391
:10003300E524B40216E523152370021522750C0579
:10004300AB23AA227D017F011203B3E5246403706D
:1000530040FCAD23FF12030E7F057E001203D0E5A3
:1000630022FD7C007F0112030E7F057E001203D068
:100073007BFF7A0379557D017F021203327FE87E8D
:10008300031203D07BFF7A03795E7D017F021203A3
:1000930032E52464046003020014FF1202B57522E2
:1000A300008F237F011202B5EFFEEE4222750C058D
:1000B300AB23AA227D017F011203B37BFF7A03796D
:1000C300677D017F021203327FE87E031203D07B38
:0F00D300FF7A03796F7D017F021203320200145E
:1003D000EF1FAC0670011E4C600B007D027CC7DC79
:0503E000FEDDFC80EBD6
:0103E50022F5
:10017600E4F50820B1137F14FE1203D030B1FD7FE1
:10018600147E001203D075080120B0147F147E007F
:100196001203D030B0FD7F147E001203D075080222
:1001A60020B2147F147E001203D030B2FD7F147E7D
:1001B600001203D075080320B3147F147E001203C7
:1001C600D030B3FD7F147E001203D0750804AF084B
:0101D6002206
:06041000C2A58F80D2A7F7
:080416007F027EEFDEFEDFFC39
:01041E0022BB
:0A043700C2A6120410C2A7020416A8
:10037700CFCDCFCECCCE1201217C007D0A12012138
:04038700ED2430FF32
:0A038B00D2A6120410C2A702041645
:1003E600AE07BE0104ED148006BE0209ED243F44AB
:0603F60080FF1204372213
:1003FC007F381204377F0C1204377F061204377FC4
:04040C0001020437AE
:0A044100AC031203E6AF0402038BC4
:060332008B088A09890A0C
:100338001203E6E4FDAB08AA09A90A8D82758300B9
:0C0348001200E2FF600612038B0D80E93A
:010354002286
:0C0282007F0AEA24FFFDE434FFFC7E004C
:08028E008E0D8F0E8C0F8D10F8
:100296007F017E00E4FBEBC39510E50F6480F874E4
:0E02A6008098500AAC0DAD0E12010F0B80E8CF
:0102B4002227
:0403B3008A0A8B0B1C
:1003B7001203E6AA0CEAD39400400D120282AC0A9B
:0803C700AD0B1203771A80ED63
:0103CF00220B
:1001D7001203E6C3EA64809480400B7F2B12038BE3
:1001E7008A168B17800E7F2D12038BC3E49BF5179E
:1001F700E49AF516AA15EAD39400400D120282ACD0
:0902070016AD171203771A80ED01
:0102100022CB
:040211008A1A8B1B9F
:100215001203E6AA1CEAD3940040297F1012028437
:10022500AC1AAD1BCFCDCFCECCCE120121EF540FE2
:10023500FEC3940AEE5004243080022437FF1203D3
:040245008B1A80D1BF
:010249002292
:04024A008A1F8B205C
:10024E001203E6AA21EAD394004028EA24FFFDE433
:10025E0034FFFC7F027E0012028EAC1FAD20CFCD8C
:10026E00CFCECCCE120121EF54012430FF12038BDE
:03027E001A80D211
:01028100225A
:09045500D2A0D2A1C2A0C2A122D2
:07045E00C2A0D2A1D2A0222E
:0202E500AD0763
:1002E700E4FB74807E00A803088006CEA2E713CE45
:1002F70013D8F8FFEDF582EF558224FF92A0D2A123
:06030700C2A10BBB08DCE3
:01030D0022CD
:10039500E4FFD2A0FED2A130A00D7480A80608808B
:0D03A50002C313D8FC4207C2A10EBE08E837
:0103B2002228
:0A044B00EF24FF92A0D2A1C2A1226B
:0B041F00E4D2A0D2A1A2A033FFC2A132
:01042A0022AF
:10030E008F088C098D0A1204557FA01202E5120483
:10031E001FAF081202E512041FAF0A1202E5120403
:04032E001F02045E48
:0202B5008F08B0
:1002B7001204557FA01202E512041FAF081202E5CF
:1002C70012041F1204557FA11202E512041F120324
:0D02D700958F097F0112044B12045EAF09E0
:0102E40022F7
:0300000002042BCC
:0C042B00787FE4F6D8FD75812402000300
:1000E200BB010CE58229F582E5833AF583E02250D3
:1000F20006E92582F8E622BBFE06E92582F8E2221D
:0D010200E58229F582E5833AF583E4932236
:10010F00EF8DF0A4A8F0CF8CF0A428CE8DF0A42E04
:02011F00FE22BE
:10012100BC000BBE0029EF8DF084FFADF022E4CCC2
:10013100F875F008EF2FFFEE33FEEC33FCEE9DEC8B
:10014100984005FCEE9DFE0FD5F0E9E4CEFD22EDD1
:10015100F8F5F0EE8420D21CFEADF075F008EF2F1B
:10016100FFED33FD4007985006D5F0F222C398FD0C
:050171000FD5F0EA22A9
:00000001FF
