:10000E001203961204018F28E528B4010CE5267020
:10001E00047F0180027F008F26E528B40207E4F5F5
:10002E0025F524F527E5286403701EE525FD7C00E3
:10003E00E4FF12031AE524FD7C00E4FF12031AE527
:10004E0027FD7C00E4FF12031AE528B40415E4FF33
:10005E0012029A8F257F0112029A8F247F021202BA
:10006E009A8F27E52575F00A84FD7C007F01120327
:10007E00EFE52575F00A84E5F0FD7C007F021203A2
:10008E00EF7D0B7C007F031203EFE52475F00A84ED
:10009E00FD7C007F041203EFE52475F00A84E5F081
:1000AE00FD7C007F051203EF7D0B7C007F061203A3
:1000BE00EFE52775F00A84FD7C007F071203EFE55C
:1000CE002775F00A84E5F0FD7C007F081203EF022D
:0200DE0000110F
:1002F300E52660220527E527C394644019E4F52722
:100303000524E524943C400EE4F5240525E52594D5
:070313003C4003E4F5252244
:03000B000200E010
:1000E000C0E0C0F0C083C082C0D075D000C000C0E6
:0D00F00001C002C003C004C005C006C00767
:1000FD00758A66758CFC051FE51F7002051EC3947D
:10010D0014E51E94004009751E00751F0012026152
:10011D000521E52170020520C39402E520940040DD
:10012D000975200075210012035C0523E52370027B
:10013D000522C3940AE52294004009752200752317
:04014D00001202F3A7
:10015100D007D006D005D004D003D002D001D00002
:0B016100D0D0D082D083D0F0D0E032AC
:1003AD00EF1FAC0670011E4C600B007D027CC7DC9C
:0503BD00FEDDFC80EBF9
:0103C2002218
:05040100E4AF2BF52B18
:0104060022D3
:1003C300E4FF20B1010F20B0027F0220B2027F03BD
:0503D30020B3027F04CD
:0103D8002202
:1002610085292A1203C38F29E52AB40107E52970DC
:1002710003752B01E52AB40207E5297003752B02EA
:10028100E52AB40307E5297003752B03E52AB404B5
:0802910007E5297003752B0439
:010299002242
:100379000909000A0A0A0A0A0A0A0A0C123F065B54
:0C0389004F666D7D077F6F00400108018A
:0903EF00AE0574092FF8A60622E0
:1001F800E4F580EE705BEF14B408005054900213DD
:1002080075F003A4C58325F0C5837302022B02028F
:100218002F02023302023702023B02024302024B60
:10022800020253D2A4800ED2A48012D2A48016D285
:10023800A4801AC2A4D2A3D2A28016C2A4D2A3C2F6
:10024800A2800EC2A4C2A3D2A28006C2A4C2A3C224
:09025800A274122DF8E6F58022D3
:10035C00AF087E0074092508F8E6FD7C001201F850
:0C036C000508E508D3940840037508015B
:010378002262
:100396005389F0438901758A66758CFCC28DD28CAF
:0703A600D2A9D2AFC2B922B7
:10031A008F2C8C2D8D2E1203F87FA01202CA120385
:10032A00D9AF2C1202CA1203D9AF2E1202CA120373
:04033A00D9020003E1
:02029A008F2CA7
:10029C001203F87FA01202CA1203D9AF2C1202CAA1
:1002AC001203D91203F87FA11202CA1203D9120346
:0D02BC003E8F2D7F011203E5120003AF2DD0
:0102C9002212
:0903F800D2A0D2A1C2A0C2A12230
:07000300C2A0D2A1D2A0228D
:0202CA00AD077E
:1002CC00E4FB74807E00A803088006CEA2E713CE60
:1002DC0013D8F8FFEDF582EF558224FF92A0D2A13E
:0602EC00C2A10BBB08DCFF
:0102F20022E9
:10033E00E4FFD2A0FED2A130A00D7480A8060880E2
:0D034E0002C313D8FC4207C2A10EBE08E88E
:01035B00227F
:0A03E500EF24FF92A0D2A1C2A122D2
:0B03D900E4D2A0D2A1A2A033FFC2A179
:0103E40022F6
:0300000002016C8E
:0C016C00787FE4F6D8FD75812E0201B307
:1001780002000EE493A3F8E493A34003F68001F28F
:1001880008DFF48029E493A3F85407240CC8C33388
:10019800C4540F4420C8834004F456800146F6DF57
:1001A800E4800B0102040810204080900379E47E6B
:1001B800019360BCA3FF543F30E509541FFEE4934C
:1001C800A360010ECF54C025E060A840B8E493A313
:1001D800FAE493A3F8E493A3C8C582C8CAC583CA3E
:1001E800F0A3C8C582C8CAC583CADFE9DEE780BEF6
:010395000067
:00000001FF
