:10009A00204A270000F88CF8F3F95BF9B8FA15FA48
:1000AA0067FAB9FB04FB4BFB90FBCFFC10FC44FC4A
:1000BA0079FCACFCDCFD09FD34FD5CFD82FDA6FD8E
:1000CA00C8FDE8FE06FE22FE3DFE56FE6EFE85FED9
:1000DA009AFEAEFEC1FED3FEE4FEF4FF031D080D38
:1000EA00040D041404140416041604140812041249
:0C00FA0004110411040F040F040D08FF92
:1001070012016F74082525F8E6FFF460238F260592
:100117002574082525F8E675F07DA4FFAEF01201D9
:10012700860525C28C7F057E00120186D28C80D37E
:04013700C28C80CF27
:03000B0002013BB4
:10013B00C0E0C0D075D000C000C006E52625E02485
:10014B0027F8E6FE08E64E6012E52625E02427F8A0
:10015B00E6FE08E6F58AEEF58CB2A5D006D000D007
:04016B00D0D0E032DE
:10018600EF1FAC0670011E4C600B007D027CC7DCC5
:05019600FEDDFC80EB22
:01019B002241
:10016F005389F0438901758A66758CFCC28DD28CD8
:07017F00D2A9D2AFC2B922E0
:0300000002000EED
:0C000E00787FE4F6D8FD75817002005583
:10001A00020107E493A3F8E493A34003F68001F2F4
:10002A0008DFF48029E493A3F85407240CC8C333E7
:10003A00C4540F4420C8834004F456800146F6DFB6
:10004A00E4800B010204081020408090009AE47EAC
:10005A00019360BCA3FF543F30E509541FFEE493AB
:10006A00A360010ECF54C025E060A840B8E493A372
:10007A00FAE493A3F8E493A3C8C582C8CAC583CA9D
:10008A00F0A3C8C582C8CAC583CADFE9DEE780BE55
:0101060000F8
:00000001FF
