:0C0133000A083F065B4F666D7D077F6F7A
:10011E00EF4E6010EF1F70011E007D027CC7DCFEEB
:04012E00DDFC80EC88
:0101320022AA
:04008F007C007E0073
:10009300EE705BEF14B4080050549000AB75F0039E
:1000A300A4C58325F0C583730200C30200C7020001
:1000B300CB0200CF0200D30200DB0200E30200EB1D
:1000C300D2A4800ED2A48012D2A48016D2A4801A05
:1000D300C2A4D2A3D2A28016C2A4D2A3C2A2800E6B
:1000E300C2A4C2A3D2A28006C2A4C2A3C2A274089D
:1000F3002DF8E6F5807F017E0012011EE4F58022D3
:100103007D017F0112008F7D027F0212008F7D032C
:0B0113007C007F037E0012009380E55B
:03000000020003F8
:0C000300787FE4F6D8FD75811102004AF8
:10000F00020103E493A3F8E493A34003F68001F203
:10001F0008DFF48029E493A3F85407240CC8C333F2
:10002F00C4540F4420C8834004F456800146F6DFC1
:10003F00E4800B0102040810204080900133E47E1D
:10004F00019360BCA3FF543F30E509541FFEE493B6
:10005F00A360010ECF54C025E060A840B8E493A37D
:10006F00FAE493A3F8E493A3C8C582C8CAC583CAA8
:10007F00F0A3C8C582C8CAC583CADFE9DEE780BE60
:01013F0000BF
:00000001FF
