:10041700EF1FAC0670011E4C600B007D027CC7DC31
:05042700FEDDFC80EB8E
:01042C0022AD
:06046900C2A58F80D2A79E
:08046F007F027EEFDEFEDFFCE0
:010477002262
:0A048400C2A6120469C2A702046FA9
:1003DC00CFCDCFCECCCE1202867C007D0A12028607
:0403EC00ED2430FFCD
:0A03F000D2A6120469C2A702046F2E
:10042D00AE07BE0104ED148006BE0209ED243F4463
:06043D0080FF120484227E
:100443007F381204847F0C1204847F061204847F95
:04045300010204841A
:0A048E00AC0312042DAF040203F0CA
:0603B9008B088A09890A85
:1003BF0012042DE4FDAB08AA09A90A8D82758300EA
:0C03CF00120247FF60061203F00D80E9E7
:0103DB0022FF
:0C0386007F0AEA24FFFDE434FFFC7E0047
:080392008E0D8F0E8C0F8D10F3
:10039A007F017E00E4FBEBC39510E50F6480F874DF
:0E03AA008098500AAC0DAD0E1202740B80E864
:0103B8002222
:0403FA008A0A8B0BD5
:1003FE0012042DAA0CEAD39400400D120386AC0A07
:08040E00AD0B1203DC1A80EDB6
:0104160022C3
:1002DB0012042DC3EA64809480400B7F2B1203F031
:1002EB008A168B17800E7F2D1203F0C3E49BF51734
:1002FB00E49AF516AA15EAD39400400D120386ACC6
:09030B0016AD171203DC1A80ED97
:0103140022C6
:040315008A1A8B1B9A
:1003190012042DAA1CEAD3940040297F10120388E5
:10032900AC1AAD1BCFCDCFCECCCE120286EF540F77
:10033900FEC3940AEE5004243080022437FF1203CE
:04034900F01A80D155
:01034D00228D
:04034E008A1F8B2057
:1003520012042DAA21EAD394004028EA24FFFDE4E6
:1003620034FFFC7F027E00120392AC1FAD20CFCD82
:10037200CFCECCCE120286EF54012430FF1203F00E
:030382001A80D20C
:010385002255
:1004570050617373776F72643A004F4B20004552B7
:02046700520041
:10018C001204437BFF7A0479577D017F011203B976
:10019C001200038F26E52660F7D3940A5033C3E58B
:1001AC00239404E52294005028AE24AF257C007DD6
:1001BC000A1202748E248F25E52675F00A84E5F068
:1001CC002525F525E43524F5240523E523700205C2
:1001DC0022750C04AB25AA247D017F021203FAE5DB
:1001EC0026640B7035E525B4290DE524B409087B8C
:1001FC00FF7A04796180067BFF7A0479657D0E7F36
:10020C00011203B9E4F524F525F522F5237BFF7AD9
:10021C000479577D017F011203B9E526640C600354
:10022C0002019CF524F525F522F5237BFF7A047950
:0B023C00577D017F011203B902019CF5
:10000300E4F5087590FFC2932097137F14FE120442
:10001300173097FD7F147E00120417750801209690
:10002300147F147E001204173096FD7F147E001295
:1000330004177508052095147F147E0012041730E9
:1000430095FD7F147E001204177508092094147F10
:10005300147E001204173094FD7F147E00120417DF
:1000630075080D7590FFC2922097147F147E0012BD
:1000730004173097FD7F147E0012041775080220C1
:1000830096147F147E001204173096FD7F147E00B1
:100093001204177508062095147F147E00120417A6
:1000A3003095FD7F147E0012041775080A209414FE
:1000B3007F147E001204173094FD7F147E00120417
:1000C3001775080E7590FFC2912097147F147E0058
:1000D3001204173097FD7F147E001204177508036E
:1000E3002096147F147E001204173096FD7F147E31
:1000F300001204177508072095147F147E0012045C
:10010300173095FD7F147E0012041775080B209499
:10011300147F147E001204173094FD7F147E0012A6
:10012300041775080F7590FFC2902097147F147EF3
:10013300001204173097FD7F147E00120417750810
:10014300042096147F147E001204173096FD7F144A
:100153007E001204177508082095147F147E001280
:1001630004173095FD7F147E0012041775080C20C8
:1001730094147F147E001204173094FD7F147E00C4
:08018300120417750810AF0803
:01018B002251
:030000000204787F
:0C047800787FE4F6D8FD75812602018C27
:10024700BB010CE58229F582E5833AF583E022506C
:1002570006E92582F8E622BBFE06E92582F8E222B6
:0D026700E58229F582E5833AF583E49322D0
:10027400EF8DF0A4A8F0CF8CF0A428CE8DF0A42E9E
:02028400FE2258
:10028600BC000BBE0029EF8DF084FFADF022E4CC5C
:10029600F875F008EF2FFFEE33FEEC33FCEE9DEC25
:1002A600984005FCEE9DFE0FD5F0E9E4CEFD22ED6B
:1002B600F8F5F0EE8420D21CFEADF075F008EF2FB5
:1002C600FFED33FD4007985006D5F0F222C398FDA6
:0502D6000FD5F0EA2243
:00000001FF
