:10097800543A0054483A00544C3A004F563A48000A
:0A0988004F563A4C004F563A20003B
:10046D00120A3D7FE87E031209C2E4FF1207F88FDE
:10047D000F7F011207F88F0AD3E50F648094FD50AA
:10048D0015C3E50A64809449400CE50A6480F8E5DB
:10049D000F6480985006750F14750A0F120A1A7B97
:1004AD00FF7A0979787D017F011208A17BFF7A0916
:1004BD00797B7D017F021208A17BFF7A09797F7D0F
:1004CD00097F021208A1E50FFB3395E0FA751903B8
:1004DD007D047F021206E1E50AFB3395E0FA7519FA
:1004ED00037D0C7F021206E11209AB120A898F10EF
:1004FD00120A3D1208288F0E8E0D8D0C8C0BE4FF09
:10050D00FEFDFCAB0EAA0DA90CA80B1201B4501EDA
:10051D007B2D7D037F01120A76AF0EAE0DAD0CACB7
:10052D000B12022D8F148E138D128C1180157B2BB7
:10053D007D037F01120A76850E14850D13850C122D
:10054D00850B11AF14AE13AD12AC1112027CAB07BB
:10055D00AA067519037D047F011209227B2E7D07E2
:10056D007F01120A76E4FFFE7DC87C42AB14AA130C
:10057D00A912A81112000E12027CE47B64FAF9F89C
:10058D001203CD7519027D087F01120922E5107045
:10059D0003020639B4010E050FD3E50F648094FDF7
:1005AD004003750F7DE510B40211150FD3E50A64F4
:1005BD0080F8E50F6480985002050FE510B4031123
:1005CD00050AC3E50F6480F8E50A648098400215BA
:1005DD000AE510B4040E150AC3E50A648094495067
:1005ED0003750AC9E50FFB3395E0FA7519037D0410
:1005FD007F021206E1E50AFB3395E0FA7519037DDA
:10060D000C7F021206E1E50FFD3395E0FCE4FF12CD
:10061D00087D7F057E001209C2E50AFD3395E0FCD9
:10062D007F0112087D7F057E001209C2AC0FEC120E
:10063D000248AB0EAA0DA90CA80B1201B4600A401A
:10064D00087BFF7A0979838019AC0AEC120248AB5A
:10065D000EAA0DA90CA80B1201B450107BFF7A093C
:10066D0079887D0D7F011208A10204F87BFF7A09BC
:0C067D00798D7D0D7F011208A10204F8A8
:03000B0002068961
:10068900C0E0C0F0C083C082C0D075D000C000C037
:0D06990001C002C003C004C005C006C007B8
:1006A600758A66758CFC0509E50970020508C39410
:1006B60014E50894004009750800750900120754EE
:1006C600D007D006D005D004D003D002D001D00088
:0B06D600D0D0D082D083D0F0D0E03232
:10087D008F158C168D17120A807FA0120854120A3C
:10088D004AAF15120854120A4AAF17120854120A29
:04089D004A02000308
:0207F8008F155B
:1007FA00120A807FA0120854120A4AAF151208542E
:10080A00120A4A120A807FA1120854120A4A1208CE
:0D081A00E68F167F01120A62120003AF166E
:0108270022AE
:1009C200EF1FAC0670011E4C600B007D027CC7DC81
:0509D200FEDDFC80EBDE
:0109D70022FD
:0D0A3D001208C47FCC1209927F4402099276
:100828001208C47FCC1209927FBE12099212093FA6
:100838008F1512093FEFFEE515FFFDAC06EC12021D
:0B08480043E4FBFA79807841120117AD
:010853002282
:090A8000D2A0D2A1C2A0C2A122A1
:07000300C2A0D2A1D2A0228D
:02085400AD07EE
:10085600E4FB74807E00A803088006CEA2E713CED0
:1008660013D8F8FFEDF582EF558224FF92A0D2A1AE
:06087600C2A10BBB08DC6F
:01087C002259
:1008E600E4FFD2A0FED2A130A00D7480A806088035
:0D08F60002C313D8FC4207C2A10EBE08E8E1
:0109030022D1
:0A0A6200EF24FF92A0D2A1C2A1224E
:0B0A4A00E4D2A0D2A1A2A033FFC2A101
:010A5500227E
:060A2E00C2A58F80D2A7D3
:080A34007F027EEFDEFEDFFC15
:010A3C002297
:0A0A6C00C2A6120A2EC2A7020A3425
:10090400CFCDCFCECCCE12033C7C007D0A12033C6B
:04091400ED2430FF9F
:0A091800D2A6120A2EC2A7020A346A
:1009D800AE07BE0104ED148006BE0209ED243F44B3
:0609E80080FF120A6C22E0
:100A1A007F38120A6C7F0C120A6C7F06120A6C7FEE
:040A2A0001020A6C4F
:0A0A7600AC031209D8AF04020918FE
:0608A1008B158A16891771
:1008A7001209D8E4FDAB15AA16A9178D8275830026
:0C08B7001202FDFF60061209180D80E916
:0108C3002212
:0C07C5007F0AEA24FFFDE434FFFC7E0004
:0807D1008E1C8F1D8C1E8D1F74
:1007D9007F017E00E4FBEBC3951FE51E6480F8747E
:0E07E9008098500AAC1CAD1D12032A0B80E84C
:0107F70022DF
:040922008A178B188D
:100926001209D8AA19EAD39400400D1207C5AC17CC
:08093600AD181209041A80ED4E
:01093E002296
:1006E1001209D8C3EA64809480400B7F2B12091849
:1006F1008A1A8B1B800E7F2D120918C3E49BF51BF0
:10070100E49AF51AAA19EAD39400400D1207C5AC70
:090711001AAD1B1209041A80ED57
:01071A0022BC
:04071B008A228B2380
:10071F001209D8AA24EAD3940040297F101207C7E0
:10072F00AC22AD23CFCDCFCECCCE12033CEF540FA6
:10073F00FEC3940AEE5004243080022437FF1209BE
:04074F00181A80D123
:010753002283
:04078D008A278B2804
:100791001209D8AA29EAD394004028EA24FFFDE4EB
:1007A10034FFFC7F027E001207D1AC27AD28CFCDEC
:1007B100CFCECCCE12033CEF54012430FF120918E6
:0307C1001A80D2C9
:0107C4002212
:1008C400C2AFD2B7C2B77FE3DFFED2B77F1DDFFE70
:1008D400A2B7E433F5167FE3DFFED2AFA2B7E43369
:0108E400FF14
:0108E50022F0
:1009EE00C2AFC2B77E03DEFEEF24FF92B77E16DEE5
:0509FE00FED2B7D2AFEC
:010A030022D0
:10095C00C2AFC2B77F02DFFED2B77F02DFFEA2B703
:0B096C00E433FE7F14DFFED2AFAF06C5
:01097700225D
:02099200AD07AF
:10099400E4FC7401A804088002C333D8FC5DFF1290
:0609A40009EE0CBC08EC9A
:0109AA00222A
:10093F00E4FDFC12095CEF600D7401A8040880024D
:0C094F00C333D8FC42050CBC08E9AF051E
:01095B002279
:050A8900E4AF2CF52C88
:010A8E002245
:100A0400E4FF20B1010F20B0027F0220B2027F0375
:050A140020B3027F0485
:010A190022BA
:10075400852A2B120A048F2AE52BB40107E52A7097
:1007640003752C01E52BB40207E52A7003752C02EE
:10077400E52BB40307E52A7003752C03E52BB404B9
:0807840007E52A7003752C043F
:01078C00224A
:1009AB005389F0438901758A66758CFCC28DD28C94
:0709BB00D2A9D2AFC2B9229C
:10000E00EC4D6011E8497017ED33EC3304600DE4EC
:10001E00FCFFFEFD22E933E8330470F80202E81219
:10002E0002B358046009E4CC24815006285009021A
:10003E0002F22840030202EFC0E0EB4A7044B9809E
:10004E0006D0E0FB0202DEEF4E701CBD8008EBFF17
:10005E00EAFEE9FD80EBE98DF0A4FEE5F00200F783
:10006E00E9CDF9EAFEEBFFEF89F0A4FCE5F0CE89CD
:10007E00F0A42EFFE435F0CD89F0A42DFEE435F08A
:10008E008067EF4E7005BD80D780C3EF8BF0A4ACB8
:10009E00F0EE8BF0A42CFCE435F0F8EF8AF0A42CF3
:1000AE00E5F038FCE433CB8DF0A42CFCE5F03BF806
:1000BE00EE8AF0A42CFCE5F038F8E433CF89F0A4F6
:1000CE002CFCE5F038CF3400CE89F0A42FFFE5F0FC
:1000DE003EFEE433C98DF0A42EFEE5F039CD8AF054
:1000EE00A42FFFE5F03EFEE43DFD33D0E0FB5007CC
:1000FE000BBB000F0202F2EC2CFCEF33FFEE33FED3
:06010E00ED33FD0202CA00
:100114000202F2EC5D046005E8590470030202E88F
:100124001202B3580460F6EC4860F2EC7004FDFE71
:10013400FF22C860DB2481C85009C39860025006BE
:100144000202EF9850CAF582E9294B4A7005AB8246
:100154000202DE75F0007C1A7880C3EF9BEE9AED04
:1001640099400DC3EF9BFFEE9AFEED99FDE842F036
:10017400DC23ACF0D0E0FFD0E0FED0E0FDAB822089
:10018400E7101BEB60BAEC2CFCEF33FFEE33FEED13
:1001940033FD0202CAE803F830E705C0F075F00049
:1001A400EF2FFFEE33FEED33FD40B830E7C280AAF7
:1001B40074F8CC6480CCC86480C8F58204604FC3F2
:1001C400EB9FF5F0EA9E42F0E99D42F0E89C45F091
:1001D400603C501DE5825FFFE582D313CB5BCBF41B
:1001E4002B5582FB50280ABA002409B90020088044
:1001F4001DE5825BFBE582D313CF5FCFF4C3132FDE
:100204005582FF50090EBE00050DBD00010CC3EB65
:100214009FF5F0EA9E42F0E99D42F0E89C45F060CB
:0902240007CC4820E701B3EC22ED
:10022D00ED33EC33600A047003BD8004ECB2E7FCDF
:01023D00229E
:10023E0075F020800E75F010800575F0087D007E3B
:10024E00007F003392D530D50312045FEC3340109B
:10025E00EF33FFEE33FEED33FDEC33FCD5F0ED2244
:0E026E00E5F0247EA2D513CC92E7CDCEFF2280
:10027C00EDD2E7CD33EC3392D524814006E4FFFE7A
:10028C00FDFC22FCE4CFCECDCC24E0501174FF80D9
:10029C00EDC3CC13CCCD13CDCE13CECF13CF047076
:0702AC00F030D5DE02045F13
:1002B300E9D2E7C933E833F892D5EDD2E7CD33EC91
:0702C30033FC5002B2D5220A
:1002CA00EC30E7100FBF000C0EBE00080DBD000495
:1002DA000BEB6014A2D5EB13FCED92E7FD2274FF41
:1002EA00FCFDFEFF22E480F8A2D574FF13FC7D809A
:0302FA00E480EFAE
:03000000020A569B
:0C0A5600787FE4F6D8FD75812C02046D59
:1002FD00BB010CE58229F582E5833AF583E02250B6
:10030D0006E92582F8E622BBFE06E92582F8E222FF
:0D031D00E58229F582E5833AF583E4932219
:10032A00EF8DF0A4A8F0CF8CF0A428CE8DF0A42EE7
:02033A00FE22A1
:10033C00BC000BBE0029EF8DF084FFADF022E4CCA5
:10034C00F875F008EF2FFFEE33FEEC33FCEE9DEC6E
:10035C00984005FCEE9DFE0FD5F0E9E4CEFD22EDB4
:10036C00F8F5F0EE8420D21CFEADF075F008EF2FFE
:10037C00FFED33FD4007985006D5F0F222C398FDEF
:05038C000FD5F0EA228C
:1003910075F008758200EF2FFFEE33FECD33CDCC23
:1003A10033CCC58233C5829BED9AEC99E5829840A6
:1003B1000CF582EE9BFEED9AFDEC99FC0FD5F0D683
:1003C100E4CEFBE4CDFAE4CCF9A88222B800C1B9AD
:1003D1000059BA002DEC8BF084CFCECDFCE5F0CBEB
:1003E100F97818EF2FFFEE33FEED33FDEC33FCEB24
:1003F10033FB10D703994004EB99FB0FD8E5E4F9DF
:10040100FA227818EF2FFFEE33FEED33FDEC33FCCB
:10041100C933C910D7059BE99A4007EC9BFCE99ABF
:10042100F90FD8E0E4C9FAE4CCFB2275F010EF2F04
:10043100FFEE33FEED33FDCC33CCC833C810D70704
:100441009BEC9AE899400AED9BFDEC9AFCE899F83F
:0E0451000FD5F0DAE4CDFBE4CCFAE4C8F922D2
:0E045F00C3E49FFFE49EFEE49DFDE49CFC22AE
:00000001FF
